{
  "_format": "hh-sol-artifact-1",
  "contractName": "DeployerRewards",
  "sourceName": "contracts/DeployerRewards.sol",
  "abi": [
    {
      "inputs": [
        {
          "internalType": "address",
          "name": "_askToken",
          "type": "address"
        }
      ],
      "stateMutability": "nonpayable",
      "type": "constructor"
    },
    {
      "inputs": [],
      "name": "AlreadyRegistered",
      "type": "error"
    },
    {
      "inputs": [],
      "name": "InvalidStakeAmount",
      "type": "error"
    },
    {
      "inputs": [],
      "name": "InvalidTier",
      "type": "error"
    },
    {
      "inputs": [],
      "name": "MonthlyLimitReached",
      "type": "error"
    },
    {
      "inputs": [],
      "name": "NotRegistered",
      "type": "error"
    },
    {
      "inputs": [],
      "name": "ZeroAddress",
      "type": "error"
    },
    {
      "anonymous": false,
      "inputs": [
        {
          "indexed": true,
          "internalType": "address",
          "name": "deployer",
          "type": "address"
        },
        {
          "indexed": false,
          "internalType": "string",
          "name": "domain",
          "type": "string"
        },
        {
          "indexed": false,
          "internalType": "uint256",
          "name": "tier",
          "type": "uint256"
        }
      ],
      "name": "DeployerRegistered",
      "type": "event"
    },
    {
      "anonymous": false,
      "inputs": [
        {
          "indexed": true,
          "internalType": "address",
          "name": "deployer",
          "type": "address"
        },
        {
          "indexed": false,
          "internalType": "uint256",
          "name": "oldTier",
          "type": "uint256"
        },
        {
          "indexed": false,
          "internalType": "uint256",
          "name": "newTier",
          "type": "uint256"
        }
      ],
      "name": "DeployerUpgraded",
      "type": "event"
    },
    {
      "anonymous": false,
      "inputs": [
        {
          "indexed": true,
          "internalType": "address",
          "name": "previousOwner",
          "type": "address"
        },
        {
          "indexed": true,
          "internalType": "address",
          "name": "newOwner",
          "type": "address"
        }
      ],
      "name": "OwnershipTransferred",
      "type": "event"
    },
    {
      "anonymous": false,
      "inputs": [
        {
          "indexed": true,
          "internalType": "address",
          "name": "deployer",
          "type": "address"
        },
        {
          "indexed": false,
          "internalType": "uint256",
          "name": "amount",
          "type": "uint256"
        },
        {
          "indexed": false,
          "internalType": "uint256",
          "name": "userReward",
          "type": "uint256"
        }
      ],
      "name": "RewardDistributed",
      "type": "event"
    },
    {
      "anonymous": false,
      "inputs": [
        {
          "indexed": true,
          "internalType": "uint256",
          "name": "tier",
          "type": "uint256"
        },
        {
          "components": [
            {
              "internalType": "uint256",
              "name": "minUsers",
              "type": "uint256"
            },
            {
              "internalType": "uint256",
              "name": "minActiveUsers",
              "type": "uint256"
            },
            {
              "internalType": "uint256",
              "name": "firstReward",
              "type": "uint256"
            },
            {
              "internalType": "uint256",
              "name": "activeRewardRate",
              "type": "uint256"
            },
            {
              "internalType": "uint256",
              "name": "monthlyLimit",
              "type": "uint256"
            }
          ],
          "indexed": false,
          "internalType": "struct DeployerRewards.TierConfig",
          "name": "config",
          "type": "tuple"
        }
      ],
      "name": "TierConfigUpdated",
      "type": "event"
    },
    {
      "anonymous": false,
      "inputs": [
        {
          "indexed": true,
          "internalType": "address",
          "name": "user",
          "type": "address"
        },
        {
          "indexed": true,
          "internalType": "address",
          "name": "deployer",
          "type": "address"
        }
      ],
      "name": "UserRegistered",
      "type": "event"
    },
    {
      "inputs": [],
      "name": "BASIS_POINTS",
      "outputs": [
        {
          "internalType": "uint256",
          "name": "",
          "type": "uint256"
        }
      ],
      "stateMutability": "view",
      "type": "function"
    },
    {
      "inputs": [],
      "name": "askToken",
      "outputs": [
        {
          "internalType": "contract IERC20",
          "name": "",
          "type": "address"
        }
      ],
      "stateMutability": "view",
      "type": "function"
    },
    {
      "inputs": [
        {
          "internalType": "address",
          "name": "deployer",
          "type": "address"
        }
      ],
      "name": "calculateTier",
      "outputs": [],
      "stateMutability": "nonpayable",
      "type": "function"
    },
    {
      "inputs": [
        {
          "internalType": "address",
          "name": "account",
          "type": "address"
        }
      ],
      "name": "checkIsDeployer",
      "outputs": [
        {
          "internalType": "bool",
          "name": "",
          "type": "bool"
        }
      ],
      "stateMutability": "view",
      "type": "function"
    },
    {
      "inputs": [],
      "name": "claimRewards",
      "outputs": [],
      "stateMutability": "nonpayable",
      "type": "function"
    },
    {
      "inputs": [
        {
          "internalType": "uint256",
          "name": "",
          "type": "uint256"
        }
      ],
      "name": "deployerList",
      "outputs": [
        {
          "internalType": "address",
          "name": "",
          "type": "address"
        }
      ],
      "stateMutability": "view",
      "type": "function"
    },
    {
      "inputs": [
        {
          "internalType": "address",
          "name": "",
          "type": "address"
        }
      ],
      "name": "deployers",
      "outputs": [
        {
          "internalType": "string",
          "name": "domain",
          "type": "string"
        },
        {
          "internalType": "uint256",
          "name": "tier",
          "type": "uint256"
        },
        {
          "internalType": "uint256",
          "name": "totalUsers",
          "type": "uint256"
        },
        {
          "internalType": "uint256",
          "name": "activeUsers",
          "type": "uint256"
        },
        {
          "internalType": "uint256",
          "name": "totalRewards",
          "type": "uint256"
        },
        {
          "internalType": "uint256",
          "name": "pendingRewards",
          "type": "uint256"
        },
        {
          "internalType": "uint256",
          "name": "monthlyCount",
          "type": "uint256"
        },
        {
          "internalType": "uint256",
          "name": "monthStart",
          "type": "uint256"
        },
        {
          "internalType": "uint256",
          "name": "registeredAt",
          "type": "uint256"
        },
        {
          "internalType": "bool",
          "name": "isActive",
          "type": "bool"
        },
        {
          "internalType": "bool",
          "name": "hasClaimedFirstReward",
          "type": "bool"
        }
      ],
      "stateMutability": "view",
      "type": "function"
    },
    {
      "inputs": [],
      "name": "getDeployerCount",
      "outputs": [
        {
          "internalType": "uint256",
          "name": "",
          "type": "uint256"
        }
      ],
      "stateMutability": "view",
      "type": "function"
    },
    {
      "inputs": [
        {
          "internalType": "address",
          "name": "deployer",
          "type": "address"
        }
      ],
      "name": "getDeployerStats",
      "outputs": [
        {
          "internalType": "string",
          "name": "domain",
          "type": "string"
        },
        {
          "internalType": "uint256",
          "name": "tier",
          "type": "uint256"
        },
        {
          "internalType": "uint256",
          "name": "totalUsers",
          "type": "uint256"
        },
        {
          "internalType": "uint256",
          "name": "activeUsers",
          "type": "uint256"
        },
        {
          "internalType": "uint256",
          "name": "totalRewards",
          "type": "uint256"
        },
        {
          "internalType": "uint256",
          "name": "pendingRewards",
          "type": "uint256"
        },
        {
          "internalType": "uint256",
          "name": "monthlyCount",
          "type": "uint256"
        },
        {
          "internalType": "uint256",
          "name": "registeredAt",
          "type": "uint256"
        },
        {
          "internalType": "bool",
          "name": "isActive",
          "type": "bool"
        }
      ],
      "stateMutability": "view",
      "type": "function"
    },
    {
      "inputs": [
        {
          "internalType": "address",
          "name": "deployer",
          "type": "address"
        }
      ],
      "name": "getReferralLink",
      "outputs": [
        {
          "internalType": "string",
          "name": "",
          "type": "string"
        }
      ],
      "stateMutability": "view",
      "type": "function"
    },
    {
      "inputs": [
        {
          "internalType": "uint256",
          "name": "tierIndex",
          "type": "uint256"
        }
      ],
      "name": "getTierInfo",
      "outputs": [
        {
          "components": [
            {
              "internalType": "uint256",
              "name": "minUsers",
              "type": "uint256"
            },
            {
              "internalType": "uint256",
              "name": "minActiveUsers",
              "type": "uint256"
            },
            {
              "internalType": "uint256",
              "name": "firstReward",
              "type": "uint256"
            },
            {
              "internalType": "uint256",
              "name": "activeRewardRate",
              "type": "uint256"
            },
            {
              "internalType": "uint256",
              "name": "monthlyLimit",
              "type": "uint256"
            }
          ],
          "internalType": "struct DeployerRewards.TierConfig",
          "name": "",
          "type": "tuple"
        }
      ],
      "stateMutability": "view",
      "type": "function"
    },
    {
      "inputs": [
        {
          "internalType": "address",
          "name": "",
          "type": "address"
        }
      ],
      "name": "isDeployer",
      "outputs": [
        {
          "internalType": "bool",
          "name": "",
          "type": "bool"
        }
      ],
      "stateMutability": "view",
      "type": "function"
    },
    {
      "inputs": [
        {
          "internalType": "address",
          "name": "user",
          "type": "address"
        },
        {
          "internalType": "uint256",
          "name": "stakeAmount",
          "type": "uint256"
        }
      ],
      "name": "onUserRegistered",
      "outputs": [],
      "stateMutability": "nonpayable",
      "type": "function"
    },
    {
      "inputs": [],
      "name": "owner",
      "outputs": [
        {
          "internalType": "address",
          "name": "",
          "type": "address"
        }
      ],
      "stateMutability": "view",
      "type": "function"
    },
    {
      "inputs": [
        {
          "internalType": "string",
          "name": "domain",
          "type": "string"
        }
      ],
      "name": "registerDeployer",
      "outputs": [],
      "stateMutability": "nonpayable",
      "type": "function"
    },
    {
      "inputs": [],
      "name": "renounceOwnership",
      "outputs": [],
      "stateMutability": "nonpayable",
      "type": "function"
    },
    {
      "inputs": [
        {
          "internalType": "uint256",
          "name": "tierIndex",
          "type": "uint256"
        },
        {
          "components": [
            {
              "internalType": "uint256",
              "name": "minUsers",
              "type": "uint256"
            },
            {
              "internalType": "uint256",
              "name": "minActiveUsers",
              "type": "uint256"
            },
            {
              "internalType": "uint256",
              "name": "firstReward",
              "type": "uint256"
            },
            {
              "internalType": "uint256",
              "name": "activeRewardRate",
              "type": "uint256"
            },
            {
              "internalType": "uint256",
              "name": "monthlyLimit",
              "type": "uint256"
            }
          ],
          "internalType": "struct DeployerRewards.TierConfig",
          "name": "config",
          "type": "tuple"
        }
      ],
      "name": "setTierConfig",
      "outputs": [],
      "stateMutability": "nonpayable",
      "type": "function"
    },
    {
      "inputs": [
        {
          "internalType": "address",
          "name": "user",
          "type": "address"
        },
        {
          "internalType": "address",
          "name": "deployer",
          "type": "address"
        }
      ],
      "name": "setUserActive",
      "outputs": [],
      "stateMutability": "nonpayable",
      "type": "function"
    },
    {
      "inputs": [
        {
          "internalType": "uint256",
          "name": "",
          "type": "uint256"
        }
      ],
      "name": "tierConfigs",
      "outputs": [
        {
          "internalType": "uint256",
          "name": "minUsers",
          "type": "uint256"
        },
        {
          "internalType": "uint256",
          "name": "minActiveUsers",
          "type": "uint256"
        },
        {
          "internalType": "uint256",
          "name": "firstReward",
          "type": "uint256"
        },
        {
          "internalType": "uint256",
          "name": "activeRewardRate",
          "type": "uint256"
        },
        {
          "internalType": "uint256",
          "name": "monthlyLimit",
          "type": "uint256"
        }
      ],
      "stateMutability": "view",
      "type": "function"
    },
    {
      "inputs": [
        {
          "internalType": "address",
          "name": "newOwner",
          "type": "address"
        }
      ],
      "name": "transferOwnership",
      "outputs": [],
      "stateMutability": "nonpayable",
      "type": "function"
    },
    {
      "inputs": [
        {
          "internalType": "address",
          "name": "",
          "type": "address"
        }
      ],
      "name": "userBindings",
      "outputs": [
        {
          "internalType": "address",
          "name": "deployer",
          "type": "address"
        },
        {
          "internalType": "uint256",
          "name": "firstStakeTime",
          "type": "uint256"
        },
        {
          "internalType": "bool",
          "name": "hasClaimed",
          "type": "bool"
        }
      ],
      "stateMutability": "view",
      "type": "function"
    },
    {
      "inputs": [
        {
          "internalType": "address",
          "name": "",
          "type": "address"
        }
      ],
      "name": "userToDeployer",
      "outputs": [
        {
          "internalType": "address",
          "name": "",
          "type": "address"
        }
      ],
      "stateMutability": "view",
      "type": "function"
    }
  ],
  "bytecode": "0x60806040523480156200001157600080fd5b5060405162001c3538038062001c358339810160408190526200003491620001c9565b6200003f3362000179565b6001600160a01b038116620000675760405163d92e233d60e01b815260040160405180910390fd5b600180546001600160a01b0319166001600160a01b03929092169190911790556040805160a0808201835260008083526020808401829052683635c9adc5dea000008486018190526103e86060808701829052600a608097880181905260028690556003869055600493909355600591909155600682905586518086018852601480825281850184905268a2a15d09519be00000828a018190526105dc8385018190526032938a018490526007929092556008859055600955909255600b82905586519485018752606480865292850182905269010f0cf064dd592000009685018790526107d090850181905293909401829052600c55600d92909255600e92909255600f91909155601055620001fb565b600080546001600160a01b038381166001600160a01b0319831681178455604051919092169283917f8be0079c531659141344cd1fd0a4f28419497f9722a3daafe3b4186f6b6457e09190a35050565b600060208284031215620001dc57600080fd5b81516001600160a01b0381168114620001f457600080fd5b9392505050565b611a2a806200020b6000396000f3fe608060405234801561001057600080fd5b50600436106101425760003560e01c806391996c49116100b8578063b57543c81161007c578063b57543c814610370578063b894ae0114610390578063cc9d7519146103a3578063dd865bef146103f8578063e1f1c4a71461040b578063f2fde38b1461041457600080fd5b806391996c49146102f95780639541047e1461030c5780639e592afc1461031f578063a0f09de514610331578063a10ef0691461034457600080fd5b80636a2385e81161010a5780636a2385e814610255578063715018a61461027f5780638127e67d14610287578063856e4bf31461029a5780638af8198c146102ad5780638da5cb5b146102e857600080fd5b8063063c9ff714610147578063305d11f6146101af578063372500ab146101d757806350c358a4146101e15780636324423b14610214575b600080fd5b61018361015536600461139c565b6013602052600090815260409020805460018201546002909201546001600160a01b03909116919060ff1683565b604080516001600160a01b03909416845260208401929092521515908201526060015b60405180910390f35b6101c26101bd36600461139c565b610427565b6040516101a69998979695949392919061140e565b6101df610543565b005b6102046101ef36600461139c565b60126020526000908152604090205460ff1681565b60405190151581526020016101a6565b61023d61022236600461139c565b6014602052600090815260409020546001600160a01b031681565b6040516001600160a01b0390911681526020016101a6565b61026861026336600461139c565b61062a565b6040516101a69b9a99989796959493929190611464565b6101df61070f565b6101df6102953660046114cb565b610723565b6101df6102a83660046114fe565b61078f565b6102c06102bb366004611528565b610b31565b604080519586526020860194909452928401919091526060830152608082015260a0016101a6565b6000546001600160a01b031661023d565b6101df610307366004611541565b610b66565b60015461023d906001600160a01b031681565b6015545b6040519081526020016101a6565b6101df61033f3660046115b3565b610c94565b61020461035236600461139c565b6001600160a01b031660009081526012602052604090205460ff1690565b61038361037e36600461139c565b610d6d565b6040516101a691906115eb565b61023d61039e366004611528565b610dd8565b6103b66103b1366004611528565b610e02565b6040516101a69190600060a082019050825182526020830151602083015260408301516040830152606083015160608301526080830151608083015292915050565b6101df61040636600461139c565b610eb0565b61032361271081565b6101df61042236600461139c565b610ef5565b60606000806000806000806000806000601160008c6001600160a01b03166001600160a01b0316815260200190815260200160002090508060000181600101548260020154836003015484600401548560050154866006015487600801548860090160009054906101000a900460ff168880546104a3906115fe565b80601f01602080910402602001604051908101604052809291908181526020018280546104cf906115fe565b801561051c5780601f106104f15761010080835404028352916020019161051c565b820191906000526020600020905b8154815290600101906020018083116104ff57829003601f168201915b50505050509850995099509950995099509950995099509950509193959799909294969850565b3360009081526012602052604090205460ff166105735760405163aba4733960e01b815260040160405180910390fd5b336000908152601160205260408120600581015490918190036105a95760405163aba4733960e01b815260040160405180910390fd5b6000600583015560015460405163a9059cbb60e01b8152336004820152602481018390526001600160a01b039091169063a9059cbb906044016020604051808303816000875af1158015610601573d6000803e3d6000fd5b505050506040513d601f19601f820116820180604052508101906106259190611638565b505050565b601160205260009081526040902080548190610645906115fe565b80601f0160208091040260200160405190810160405280929190818152602001828054610671906115fe565b80156106be5780601f10610693576101008083540402835291602001916106be565b820191906000526020600020905b8154815290600101906020018083116106a157829003601f168201915b50505060018401546002850154600386015460048701546005880154600689015460078a015460088b01546009909b0154999a96999598509396509194909391929160ff808216916101009004168b565b610717610f70565b6107216000610fca565b565b6001600160a01b03811660009081526012602052604090205460ff1661075c5760405163aba4733960e01b815260040160405180910390fd5b6001600160a01b0381166000908152601160205260408120600381018054919261078583611670565b9190505550505050565b6001600160a01b0382166107b65760405163d92e233d60e01b815260040160405180910390fd5b806000036107d757604051630103be3b60e21b815260040160405180910390fd5b33600090815260116020908152604080832060129092529091205460ff166108125760405163aba4733960e01b815260040160405180910390fd5b6000600282600101546003811061082b5761082b611689565b600502016040518060a00160405290816000820154815260200160018201548152602001600282015481526020016003820154815260200160048201548152505090506000816080015111156108c4576108843361101a565b80608001518260060154106108ac5760405163c969084560e01b815260040160405180910390fd5b6006820180549060006108be83611670565b91905055505b604080516060810182523380825242602080840191825260008486018181526001600160a01b038b81168352601384528783209651875491166001600160a01b031991821617875593516001870155516002958601805491151560ff19909216919091179055601490915293842080549091169091179055830180549161094a83611670565b91905055506000612710826060015185610964919061169f565b61096e91906116d2565b90506000612710610981866101f461169f565b61098b91906116d2565b90508115610aaf57818460050160008282546109a791906116e6565b92505081905550818460040160008282546109c291906116e6565b90915550506001546040516370a0823160e01b815230600482015283916001600160a01b0316906370a0823190602401602060405180830381865afa158015610a0f573d6000803e3d6000fd5b505050506040513d601f19601f82011682018060405250810190610a3391906116f9565b10610aaf5760015460405163a9059cbb60e01b8152336004820152602481018490526001600160a01b039091169063a9059cbb906044016020604051808303816000875af1158015610a89573d6000803e3d6000fd5b505050506040513d601f19601f82011682018060405250810190610aad9190611638565b505b60405133906001600160a01b038816907f2138b9314634f9fdd5e49bee3eaf17ca557b6637524d0db759711c3bfcd3d85090600090a3604080518381526020810183905233917f53118bff2fb56701752f5bf54053d24fb83cec92f9f6ce664b90c38a2991caa4910160405180910390a2610b2933611075565b505050505050565b60028160038110610b4157600080fd5b6005020180546001820154600283015460038401546004909401549294509092909185565b6000819003610b885760405163d92e233d60e01b815260040160405180910390fd5b3360009081526012602052604090205460ff1615610bb957604051630ea075bf60e21b815260040160405180910390fd5b33600090815260116020526040902080610bd483858361176e565b506000600180830182905560098301805460ff1990811683179091554260088501819055600785015533808452601260205260408085208054909316841790925560158054938401815584527f55f448fdea98c4d29eb340757ef0a66cd03dbb9538908a6a81d96026b71ec47590920180546001600160a01b031916831790555190917f08f6f334412de557f856b3f55894702338d45ac95a899a0f4bfee28d06b74fa191610c8791879187919061182f565b60405180910390a2505050565b610c9c610f70565b60038210610cbd5760405163e142361760e01b815260040160405180910390fd5b8060028360038110610cd157610cd1611689565b60050201610d0a828281358155602082013560018201556040820135600282015560608201356003820155608082013560048201555050565b505060408051823581526020808401359082015282820135818301526060808401359082015260808084013590820152905183917fbf276f047e8d643230e96f77f58edd68b52f9e6fe978f7d3cd74226e0bfc0453919081900360a00190a25050565b6001600160a01b03811660009081526012602052604090205460609060ff16610da95760405163aba4733960e01b815260040160405180910390fd5b610db282611191565b604051602001610dc29190611868565b6040516020818303038152906040529050919050565b60158181548110610de857600080fd5b6000918252602090912001546001600160a01b0316905081565b610e346040518060a0016040528060008152602001600081526020016000815260200160008152602001600081525090565b60038210610e555760405163e142361760e01b815260040160405180910390fd5b60028260038110610e6857610e68611689565b600502016040518060a0016040529081600082015481526020016001820154815260200160028201548152602001600382015481526020016004820154815250509050919050565b6001600160a01b03811660009081526012602052604090205460ff16610ee95760405163aba4733960e01b815260040160405180910390fd5b610ef281611075565b50565b610efd610f70565b6001600160a01b038116610f675760405162461bcd60e51b815260206004820152602660248201527f4f776e61626c653a206e6577206f776e657220697320746865207a65726f206160448201526564647265737360d01b60648201526084015b60405180910390fd5b610ef281610fca565b6000546001600160a01b031633146107215760405162461bcd60e51b815260206004820181905260248201527f4f776e61626c653a2063616c6c6572206973206e6f7420746865206f776e65726044820152606401610f5e565b600080546001600160a01b038381166001600160a01b0319831681178455604051919092169283917f8be0079c531659141344cd1fd0a4f28419497f9722a3daafe3b4186f6b6457e09190a35050565b6001600160a01b03811660009081526011602052604081209061104062278d00426116d2565b9050600062278d00836007015461105791906116d2565b90508082111561106f57600060068401554260078401555b50505050565b6001600160a01b038116600090815260116020526040902060018101548060025b60018110611137576000600282600381106110b3576110b3611689565b600502016040518060a0016040529081600082015481526020016001820154815260200160028201548152602001600382015481526020016004820154815250509050806000015185600201541015801561111657508060200151856003015410155b156111245781925050611137565b508061112f816118ad565b915050611096565b508181111561106f576001830181905560408051838152602081018390526001600160a01b038616917f99ec1ddeeedf3412387c7f946aae96f0360e2e4cc1290cf23ca03da12c08421e910160405180910390a250505050565b60408051602a808252606082810190935260009190602082018180368337019050509050600360fc1b816000815181106111cd576111cd611689565b60200101906001600160f81b031916908160001a905350600f60fb1b816001815181106111fc576111fc611689565b60200101906001600160f81b031916908160001a90535060005b601481101561137957600061010061122f8360136118c4565b61123a90600861169f565b6112459060026119bb565b611258906001600160a01b0388166116d2565b61126291906119c7565b905060006112716010836116d2565b905060006112806010846119c7565b9050600a8260ff16106112a0576112988260576119db565b60f81b6112af565b6112ab8260306119db565b60f81b5b856112bb86600261169f565b6112c69060026116e6565b815181106112d6576112d6611689565b60200101906001600160f81b031916908160001a905350600a8160ff161061130b576113038160576119db565b60f81b61131a565b6113168160306119db565b60f81b5b8561132686600261169f565b6113319060026116e6565b61133c9060016116e6565b8151811061134c5761134c611689565b60200101906001600160f81b031916908160001a905350505050808061137190611670565b915050611216565b5092915050565b80356001600160a01b038116811461139757600080fd5b919050565b6000602082840312156113ae57600080fd5b6113b782611380565b9392505050565b60005b838110156113d95781810151838201526020016113c1565b50506000910152565b600081518084526113fa8160208601602086016113be565b601f01601f19169290920160200192915050565b60006101208083526114228184018d6113e2565b602084019b909b52505060408101979097526060870195909552608086019390935260a085019190915260c084015260e0830152151561010090910152919050565b60006101608083526114788184018f6113e2565b602084019d909d52505060408101999099526060890197909752608088019590955260a087019390935260c086019190915260e08501526101008401521515610120830152151561014090910152919050565b600080604083850312156114de57600080fd5b6114e783611380565b91506114f560208401611380565b90509250929050565b6000806040838503121561151157600080fd5b61151a83611380565b946020939093013593505050565b60006020828403121561153a57600080fd5b5035919050565b6000806020838503121561155457600080fd5b823567ffffffffffffffff8082111561156c57600080fd5b818501915085601f83011261158057600080fd5b81358181111561158f57600080fd5b8660208285010111156115a157600080fd5b60209290920196919550909350505050565b60008082840360c08112156115c757600080fd5b8335925060a0601f19820112156115dd57600080fd5b506020830190509250929050565b6020815260006113b760208301846113e2565b600181811c9082168061161257607f821691505b60208210810361163257634e487b7160e01b600052602260045260246000fd5b50919050565b60006020828403121561164a57600080fd5b815180151581146113b757600080fd5b634e487b7160e01b600052601160045260246000fd5b6000600182016116825761168261165a565b5060010190565b634e487b7160e01b600052603260045260246000fd5b80820281158282048414176116b6576116b661165a565b92915050565b634e487b7160e01b600052601260045260246000fd5b6000826116e1576116e16116bc565b500490565b808201808211156116b6576116b661165a565b60006020828403121561170b57600080fd5b5051919050565b634e487b7160e01b600052604160045260246000fd5b601f82111561062557600081815260208120601f850160051c8101602086101561174f5750805b601f850160051c820191505b81811015610b295782815560010161175b565b67ffffffffffffffff83111561178657611786611712565b61179a8361179483546115fe565b83611728565b6000601f8411600181146117ce57600085156117b65750838201355b600019600387901b1c1916600186901b178355611828565b600083815260209020601f19861690835b828110156117ff57868501358255602094850194600190920191016117df565b508682101561181c5760001960f88860031b161c19848701351681555b505060018560011b0183555b5050505050565b604081528260408201528284606083013760006060848301015260006060601f19601f8601168301019050826020830152949350505050565b7f68747470733a2f2f6170702e6167656e74736b696c6c732e696f2f7265662f008152600082516118a081601f8501602087016113be565b91909101601f0192915050565b6000816118bc576118bc61165a565b506000190190565b818103818111156116b6576116b661165a565b600181815b808511156119125781600019048211156118f8576118f861165a565b8085161561190557918102915b93841c93908002906118dc565b509250929050565b600082611929575060016116b6565b81611936575060006116b6565b816001811461194c576002811461195657611972565b60019150506116b6565b60ff8411156119675761196761165a565b50506001821b6116b6565b5060208310610133831016604e8410600b8410161715611995575081810a6116b6565b61199f83836118d7565b80600019048211156119b3576119b361165a565b029392505050565b60006113b7838361191a565b6000826119d6576119d66116bc565b500690565b60ff81811683821601908111156116b6576116b661165a56fea2646970667358221220a899ca64079907a59d76ecb748c9c5a886817a120988924fb628a25fee5fa04164736f6c63430008140033",
  "linkReferences": {},
  "deployedLinkReferences": {}
}