{
  "_format": "hh-sol-artifact-1",
  "contractName": "RevenueDistributor",
  "sourceName": "contracts/RevenueDistributor.sol",
  "abi": [
    {
      "inputs": [
        {
          "internalType": "address",
          "name": "_askToken",
          "type": "address"
        }
      ],
      "stateMutability": "nonpayable",
      "type": "constructor"
    },
    {
      "inputs": [],
      "name": "InsufficientBalance",
      "type": "error"
    },
    {
      "inputs": [],
      "name": "InvalidRatio",
      "type": "error"
    },
    {
      "inputs": [],
      "name": "NoDeployersToDistribute",
      "type": "error"
    },
    {
      "inputs": [],
      "name": "ZeroAddress",
      "type": "error"
    },
    {
      "anonymous": false,
      "inputs": [
        {
          "indexed": false,
          "internalType": "uint16",
          "name": "bronze",
          "type": "uint16"
        },
        {
          "indexed": false,
          "internalType": "uint16",
          "name": "silver",
          "type": "uint16"
        },
        {
          "indexed": false,
          "internalType": "uint16",
          "name": "gold",
          "type": "uint16"
        }
      ],
      "name": "DeployerSharesUpdated",
      "type": "event"
    },
    {
      "anonymous": false,
      "inputs": [
        {
          "indexed": false,
          "internalType": "uint16",
          "name": "toDeployers",
          "type": "uint16"
        },
        {
          "indexed": false,
          "internalType": "uint16",
          "name": "toTreasury",
          "type": "uint16"
        },
        {
          "indexed": false,
          "internalType": "uint16",
          "name": "toStaking",
          "type": "uint16"
        }
      ],
      "name": "DistributionRatiosUpdated",
      "type": "event"
    },
    {
      "anonymous": false,
      "inputs": [
        {
          "indexed": true,
          "internalType": "address",
          "name": "deployer",
          "type": "address"
        },
        {
          "indexed": false,
          "internalType": "uint256",
          "name": "amount",
          "type": "uint256"
        },
        {
          "indexed": false,
          "internalType": "uint256",
          "name": "totalDistributors",
          "type": "uint256"
        }
      ],
      "name": "DividendsDistributed",
      "type": "event"
    },
    {
      "anonymous": false,
      "inputs": [
        {
          "indexed": true,
          "internalType": "address",
          "name": "previousOwner",
          "type": "address"
        },
        {
          "indexed": true,
          "internalType": "address",
          "name": "newOwner",
          "type": "address"
        }
      ],
      "name": "OwnershipTransferred",
      "type": "event"
    },
    {
      "anonymous": false,
      "inputs": [
        {
          "indexed": false,
          "internalType": "uint256",
          "name": "amount",
          "type": "uint256"
        },
        {
          "indexed": false,
          "internalType": "uint256",
          "name": "toDeployers",
          "type": "uint256"
        },
        {
          "indexed": false,
          "internalType": "uint256",
          "name": "toTreasury",
          "type": "uint256"
        },
        {
          "indexed": false,
          "internalType": "uint256",
          "name": "toStaking",
          "type": "uint256"
        }
      ],
      "name": "RevenueReceived",
      "type": "event"
    },
    {
      "inputs": [],
      "name": "BASIS_POINTS",
      "outputs": [
        {
          "internalType": "uint256",
          "name": "",
          "type": "uint256"
        }
      ],
      "stateMutability": "view",
      "type": "function"
    },
    {
      "inputs": [],
      "name": "MIN_DISTRIBUTION",
      "outputs": [
        {
          "internalType": "uint256",
          "name": "",
          "type": "uint256"
        }
      ],
      "stateMutability": "view",
      "type": "function"
    },
    {
      "inputs": [],
      "name": "askToken",
      "outputs": [
        {
          "internalType": "contract IERC20",
          "name": "",
          "type": "address"
        }
      ],
      "stateMutability": "view",
      "type": "function"
    },
    {
      "inputs": [
        {
          "internalType": "address",
          "name": "",
          "type": "address"
        }
      ],
      "name": "cumulativeDividends",
      "outputs": [
        {
          "internalType": "uint256",
          "name": "",
          "type": "uint256"
        }
      ],
      "stateMutability": "view",
      "type": "function"
    },
    {
      "inputs": [],
      "name": "deployerRewards",
      "outputs": [
        {
          "internalType": "address",
          "name": "",
          "type": "address"
        }
      ],
      "stateMutability": "view",
      "type": "function"
    },
    {
      "inputs": [],
      "name": "deployerShares",
      "outputs": [
        {
          "internalType": "uint16",
          "name": "bronze",
          "type": "uint16"
        },
        {
          "internalType": "uint16",
          "name": "silver",
          "type": "uint16"
        },
        {
          "internalType": "uint16",
          "name": "gold",
          "type": "uint16"
        }
      ],
      "stateMutability": "view",
      "type": "function"
    },
    {
      "inputs": [],
      "name": "distribute",
      "outputs": [],
      "stateMutability": "nonpayable",
      "type": "function"
    },
    {
      "inputs": [],
      "name": "distributionRatios",
      "outputs": [
        {
          "internalType": "uint16",
          "name": "toDeployers",
          "type": "uint16"
        },
        {
          "internalType": "uint16",
          "name": "toTreasury",
          "type": "uint16"
        },
        {
          "internalType": "uint16",
          "name": "toStakingPool",
          "type": "uint16"
        }
      ],
      "stateMutability": "view",
      "type": "function"
    },
    {
      "inputs": [
        {
          "internalType": "address",
          "name": "deployer",
          "type": "address"
        }
      ],
      "name": "getCumulativeDividends",
      "outputs": [
        {
          "internalType": "uint256",
          "name": "",
          "type": "uint256"
        }
      ],
      "stateMutability": "view",
      "type": "function"
    },
    {
      "inputs": [],
      "name": "getPendingDividends",
      "outputs": [
        {
          "internalType": "uint256",
          "name": "",
          "type": "uint256"
        }
      ],
      "stateMutability": "view",
      "type": "function"
    },
    {
      "inputs": [
        {
          "internalType": "address",
          "name": "",
          "type": "address"
        }
      ],
      "name": "lastClaimedAt",
      "outputs": [
        {
          "internalType": "uint256",
          "name": "",
          "type": "uint256"
        }
      ],
      "stateMutability": "view",
      "type": "function"
    },
    {
      "inputs": [],
      "name": "owner",
      "outputs": [
        {
          "internalType": "address",
          "name": "",
          "type": "address"
        }
      ],
      "stateMutability": "view",
      "type": "function"
    },
    {
      "inputs": [],
      "name": "renounceOwnership",
      "outputs": [],
      "stateMutability": "nonpayable",
      "type": "function"
    },
    {
      "inputs": [
        {
          "internalType": "address",
          "name": "_deployerRewards",
          "type": "address"
        }
      ],
      "name": "setDeployerRewards",
      "outputs": [],
      "stateMutability": "nonpayable",
      "type": "function"
    },
    {
      "inputs": [
        {
          "internalType": "address",
          "name": "_stakingPool",
          "type": "address"
        }
      ],
      "name": "setStakingPool",
      "outputs": [],
      "stateMutability": "nonpayable",
      "type": "function"
    },
    {
      "inputs": [
        {
          "internalType": "address",
          "name": "_treasury",
          "type": "address"
        }
      ],
      "name": "setTreasury",
      "outputs": [],
      "stateMutability": "nonpayable",
      "type": "function"
    },
    {
      "inputs": [],
      "name": "stakingPool",
      "outputs": [
        {
          "internalType": "address",
          "name": "",
          "type": "address"
        }
      ],
      "stateMutability": "view",
      "type": "function"
    },
    {
      "inputs": [
        {
          "internalType": "address",
          "name": "newOwner",
          "type": "address"
        }
      ],
      "name": "transferOwnership",
      "outputs": [],
      "stateMutability": "nonpayable",
      "type": "function"
    },
    {
      "inputs": [],
      "name": "treasury",
      "outputs": [
        {
          "internalType": "address",
          "name": "",
          "type": "address"
        }
      ],
      "stateMutability": "view",
      "type": "function"
    },
    {
      "inputs": [
        {
          "internalType": "uint16",
          "name": "_bronze",
          "type": "uint16"
        },
        {
          "internalType": "uint16",
          "name": "_silver",
          "type": "uint16"
        },
        {
          "internalType": "uint16",
          "name": "_gold",
          "type": "uint16"
        }
      ],
      "name": "updateDeployerShares",
      "outputs": [],
      "stateMutability": "nonpayable",
      "type": "function"
    },
    {
      "inputs": [
        {
          "internalType": "uint16",
          "name": "_toDeployers",
          "type": "uint16"
        },
        {
          "internalType": "uint16",
          "name": "_toTreasury",
          "type": "uint16"
        },
        {
          "internalType": "uint16",
          "name": "_toStakingPool",
          "type": "uint16"
        }
      ],
      "name": "updateDistributionRatios",
      "outputs": [],
      "stateMutability": "nonpayable",
      "type": "function"
    }
  ],
  "bytecode": "0x611388608052610bb860a0526107d060c0526001805465ffffffffffff199081166507d00bb8138817909155610140604052610fa060e05261177061010052611f406101205260028054909116651f4017700fa017905534801561006257600080fd5b506040516115013803806115018339810160408190526100819161012b565b61008a336100db565b6001600160a01b0381166100b15760405163d92e233d60e01b815260040160405180910390fd5b600380546001600160a01b0319166001600160a01b0383161790556100d5336100db565b5061015b565b600080546001600160a01b038381166001600160a01b0319831681178455604051919092169283917f8be0079c531659141344cd1fd0a4f28419497f9722a3daafe3b4186f6b6457e09190a35050565b60006020828403121561013d57600080fd5b81516001600160a01b038116811461015457600080fd5b9392505050565b6113978061016a6000396000f3fe608060405234801561001057600080fd5b50600436106101375760003560e01c80638796f4aa116100b8578063e1f1c4a71161007c578063e1f1c4a7146102ec578063e4fc6b6d146102f5578063e7a594ea146102fd578063ef1d801814610310578063f0f4426014610318578063f2fde38b1461032b57600080fd5b80638796f4aa1461027d5780638da5cb5b1461028c5780638e39319f1461029d5780639541047e146102c6578063d4653db5146102d957600080fd5b806361d027b3116100ff57806361d027b31461021c57806364cd3fe11461022f5780636c5d27e8146102425780636f92b29e14610262578063715018a61461027557600080fd5b80630c56ae3b1461013c5780631ec8e1581461016c57806326a40c99146101b55780633028f63a146101e3578063357eaf71146101f8575b600080fd5b60065461014f906001600160a01b031681565b6040516001600160a01b0390911681526020015b60405180910390f35b6002546101909061ffff808216916201000081048216916401000000009091041683565b6040805161ffff94851681529284166020840152921691810191909152606001610163565b6101d56101c3366004611183565b60086020526000908152604090205481565b604051908152602001610163565b6101f66101f1366004611183565b61033e565b005b6001546101909061ffff808216916201000081048216916401000000009091041683565b60055461014f906001600160a01b031681565b6101f661023d3660046111be565b610397565b6101d5610250366004611183565b60076020526000908152604090205481565b6101f6610270366004611183565b61046d565b6101f66104bd565b6101d5670de0b6b3a764000081565b6000546001600160a01b031661014f565b6101d56102ab366004611183565b6001600160a01b031660009081526007602052604090205490565b60035461014f906001600160a01b031681565b6101f66102e73660046111be565b6104d1565b6101d561271081565b6101f66105ab565b60045461014f906001600160a01b031681565b6101d5610862565b6101f6610326366004611183565b6108d4565b6101f6610339366004611183565b610924565b61034661099d565b6001600160a01b0381166103755760405162461bcd60e51b815260040161036c90611201565b60405180910390fd5b600680546001600160a01b0319166001600160a01b0392909216919091179055565b61039f61099d565b612710816103ad848661123d565b6103b7919061123d565b61ffff16146103d95760405163648564d360e01b815260040160405180910390fd5b604080516060808201835261ffff86811680845286821660208086018290529287169486018590526001805463ffffffff191683176201000083021765ffff0000000019166401000000008702179055855191825291810191909152928301919091527fb203ff14ad3239ea4790ef7c84407dd3e3a68c3ddee25e8d05ded59e60400e0191015b60405180910390a1505050565b61047561099d565b6001600160a01b03811661049b5760405162461bcd60e51b815260040161036c90611201565b600480546001600160a01b0319166001600160a01b0392909216919091179055565b6104c561099d565b6104cf60006109f7565b565b6104d961099d565b6127108361ffff1611806104f257506127108261ffff16115b8061050257506127108161ffff16115b156105205760405163648564d360e01b815260040160405180910390fd5b604080516060808201835261ffff86811680845286821660208086018290529287169486018590526002805463ffffffff191683176201000083021765ffff0000000019166401000000008702179055855191825291810191909152928301919091527f6228956be132d910223ee10f0842c66b48c2a46000732e9e0a2c9a580a02d1889101610460565b6003546040516370a0823160e01b81523060048201526000916001600160a01b0316906370a0823190602401602060405180830381865afa1580156105f4573d6000803e3d6000fd5b505050506040513d601f19601f82011682018060405250810190610618919061125f565b9050670de0b6b3a76400008110156106695760405162461bcd60e51b8152602060048201526014602482015273496e73756666696369656e742062616c616e636560601b604482015260640161036c565b600154600090612710906106819061ffff1684611278565b61068b9190611295565b600154909150600090612710906106ac9062010000900461ffff1685611278565b6106b69190611295565b90506000816106c584866112b7565b6106cf91906112b7565b905082156106e0576106e083610a47565b6000821180156106fa57506005546001600160a01b031615155b1561077a5760035460055460405163a9059cbb60e01b81526001600160a01b0391821660048201526024810185905291169063a9059cbb906044016020604051808303816000875af1158015610754573d6000803e3d6000fd5b505050506040513d601f19601f8201168201806040525081019061077891906112ca565b505b60008111801561079457506006546001600160a01b031615155b156108145760035460065460405163a9059cbb60e01b81526001600160a01b0391821660048201526024810184905291169063a9059cbb906044016020604051808303816000875af11580156107ee573d6000803e3d6000fd5b505050506040513d601f19601f8201168201806040525081019061081291906112ca565b505b6040805185815260208101859052908101839052606081018290527f38f3ab29c01dc4a9282055ba373e456cbd3444cc1f038be74c63b38cabda88de9060800160405180910390a150505050565b6003546040516370a0823160e01b81523060048201526000916001600160a01b0316906370a0823190602401602060405180830381865afa1580156108ab573d6000803e3d6000fd5b505050506040513d601f19601f820116820180604052508101906108cf919061125f565b905090565b6108dc61099d565b6001600160a01b0381166109025760405162461bcd60e51b815260040161036c90611201565b600580546001600160a01b0319166001600160a01b0392909216919091179055565b61092c61099d565b6001600160a01b0381166109915760405162461bcd60e51b815260206004820152602660248201527f4f776e61626c653a206e6577206f776e657220697320746865207a65726f206160448201526564647265737360d01b606482015260840161036c565b61099a816109f7565b50565b6000546001600160a01b031633146104cf5760405162461bcd60e51b815260206004820181905260248201527f4f776e61626c653a2063616c6c6572206973206e6f7420746865206f776e6572604482015260640161036c565b600080546001600160a01b038381166001600160a01b0319831681178455604051919092169283917f8be0079c531659141344cd1fd0a4f28419497f9722a3daafe3b4186f6b6457e09190a35050565b6004546001600160a01b0316610a5a5750565b6000600460009054906101000a90046001600160a01b03166001600160a01b0316639e592afc6040518163ffffffff1660e01b8152600401602060405180830381865afa158015610aaf573d6000803e3d6000fd5b505050506040513d601f19601f82011682018060405250810190610ad3919061125f565b905080600003610af657604051637882c2cf60e01b815260040160405180910390fd5b6000808267ffffffffffffffff811115610b1257610b126112ec565b604051908082528060200260200182016040528015610b3b578160200160208202803683370190505b5090506000805b84811015610d00576004805460405163b894ae0160e01b81529182018390526000916001600160a01b039091169063b894ae0190602401602060405180830381865afa158015610b96573d6000803e3d6000fd5b505050506040513d601f19601f82011682018060405250810190610bba9190611302565b60048054604051630bb9807b60e11b81526001600160a01b0380851693820193909352929350169063177300f690602401602060405180830381865afa158015610c08573d6000803e3d6000fd5b505050506040513d601f19601f82011682018060405250810190610c2c91906112ca565b15610c7057808484610c3d8161131f565b955081518110610c4f57610c4f611338565b60200260200101906001600160a01b031690816001600160a01b0316815250505b60048054604051633c87264560e01b81526001600160a01b0384811693820193909352911690633c87264590602401602060405180830381865afa158015610cbc573d6000803e3d6000fd5b505050506040513d601f19601f82011682018060405250810190610ce0919061125f565b610cea908661134e565b9450508080610cf89061131f565b915050610b42565b5060025460009061271090610d2190640100000000900461ffff1688611278565b610d2b9190611295565b9050600081118015610d3d5750600082115b15610e99576000610d4e8383611295565b905060005b83811015610e96576000858281518110610d6f57610d6f611338565b60200260200101519050670de0b6b3a76400008310610e835760035460405163a9059cbb60e01b81526001600160a01b038381166004830152602482018690529091169063a9059cbb906044016020604051808303816000875af1158015610ddb573d6000803e3d6000fd5b505050506040513d601f19601f82011682018060405250810190610dff91906112ca565b506001600160a01b03811660009081526007602052604081208054859290610e2890849061134e565b90915550506001600160a01b03811660008181526008602090815260409182902042905581518681529081018890527fd2f6b4ff9fc44f9f09c0bf947cfb196c17c66213ea2a7d59a42bab3428ccd94e910160405180910390a25b5080610e8e8161131f565b915050610d53565b50505b6000610ea582886112b7565b9050600081118015610eb75750600085115b156111655760005b86811015611163576004805460405163b894ae0160e01b81529182018390526000916001600160a01b039091169063b894ae0190602401602060405180830381865afa158015610f13573d6000803e3d6000fd5b505050506040513d601f19601f82011682018060405250810190610f379190611302565b60048054604051630bb9807b60e11b81526001600160a01b0380851693820193909352929350169063177300f690602401602060405180830381865afa158015610f85573d6000803e3d6000fd5b505050506040513d601f19601f82011682018060405250810190610fa991906112ca565b15610fb45750611151565b60048054604051633c87264560e01b81526001600160a01b038481169382019390935260009290911690633c87264590602401602060405180830381865afa158015611004573d6000803e3d6000fd5b505050506040513d601f19601f82011682018060405250810190611028919061125f565b90506000886110378387611278565b6110419190611295565b9050670de0b6b3a7640000811061114d5760035460405163a9059cbb60e01b81526001600160a01b038581166004830152602482018490529091169063a9059cbb906044016020604051808303816000875af11580156110a5573d6000803e3d6000fd5b505050506040513d601f19601f820116820180604052508101906110c991906112ca565b506001600160a01b038316600090815260076020526040812080548392906110f290849061134e565b90915550506001600160a01b03831660008181526008602090815260409182902042905581518481529081018d90527fd2f6b4ff9fc44f9f09c0bf947cfb196c17c66213ea2a7d59a42bab3428ccd94e910160405180910390a25b5050505b8061115b8161131f565b915050610ebf565b505b50505050505050565b6001600160a01b038116811461099a57600080fd5b60006020828403121561119557600080fd5b81356111a08161116e565b9392505050565b803561ffff811681146111b957600080fd5b919050565b6000806000606084860312156111d357600080fd5b6111dc846111a7565b92506111ea602085016111a7565b91506111f8604085016111a7565b90509250925092565b6020808252600c908201526b5a65726f206164647265737360a01b604082015260600190565b634e487b7160e01b600052601160045260246000fd5b61ffff81811683821601908082111561125857611258611227565b5092915050565b60006020828403121561127157600080fd5b5051919050565b808202811582820484141761128f5761128f611227565b92915050565b6000826112b257634e487b7160e01b600052601260045260246000fd5b500490565b8181038181111561128f5761128f611227565b6000602082840312156112dc57600080fd5b815180151581146111a057600080fd5b634e487b7160e01b600052604160045260246000fd5b60006020828403121561131457600080fd5b81516111a08161116e565b60006001820161133157611331611227565b5060010190565b634e487b7160e01b600052603260045260246000fd5b8082018082111561128f5761128f61122756fea264697066735822122062c9733e1bfad0c58d80734297c23be62ea210f6e3549d582a8db3eb51ab6a5264736f6c63430008140033",
  "linkReferences": {},
  "deployedLinkReferences": {}
}